:020000040800F2
:10000000002800205D110008ED100008F310000822
:10001000F9100008FF10000805110008000000009A
:100020000000000000000000000000000B110008AC
:100030001711000800000000231100082F1100080C
:10004000A5110008A5110008A5110008A5110008B8
:10005000A5110008A5110008A5110008A5110008A8
:10006000A5110008A5110008A5110008A511000898
:10007000A5110008A5110008A5110008A511000888
:10008000A5110008A5110008A5110008A511000878
:10009000A5110008A5110008A5110008A511000868
:1000A000A5110008A5110008A5110008A511000858
:1000B0003D110008A511000800000000A51100086E
:1000C000A51100080000000000000000A5110008B4
:1000D00000000000A5110008A511000800000000A4
:1000E000A5110008A5110008A511000800000000D6
:1000F0000000000000000000000000000000000000
:0C01000000000000000000005FF808F1A3
:10010C0010B5054C237833B9044B13B10448AFF345
:10011C0000800123237010BD2C0000200000000083
:10012C00C027000808B5034B1BB103490348AFF3C4
:10013C00008008BD0000000030000020C02700082F
:10014C0080B582B000AF78607B68002B22D1002292
:10015C000121BD4801F00CFB00220221BA4801F03C
:10016C0007FB00220421B84801F002FB0022082101
:10017C00B54801F0FDFA00221021B34801F0F8FA5D
:10018C0000222021B04801F0F3FA01224021AE48B0
:10019C0001F0EEFA7B68012B22D101220121AA4841
:1001AC0001F0E6FA00220221A74801F0E1FA002250
:1001BC000421A54801F0DCFA01220821A24801F033
:1001CC00D7FA01221021A04801F0D2FA01222021F5
:1001DC009D4801F0CDFA012240219B4801F0C8FA5C
:1001EC007B68022B22D100220121974801F0C0FA32
:1001FC0000220221944801F0BBFA0122042192480A
:10020C0001F0B6FA002208218F4801F0B1FA002261
:10021C0010218D4801F0ACFA012220218A4801F00E
:10022C00A7FA00224021884801F0A2FA7B68032B30
:10023C0022D100220121844801F09AFA00220221E5
:10024C00814801F095FA002204217F4801F090FAD0
:10025C00002208217C4801F08BFA012210217A48F7
:10026C0001F086FA01222021774801F081FA002260
:10027C004021754801F07CFA7B68042B22D10122C5
:10028C000121714801F074FA002202216E4801F03C
:10029C006FFA002204216C4801F06AFA012208214D
:1002AC00694801F065FA01221021674801F060FAF3
:1002BC0000222021644801F05BFA002240216248B0
:1002CC0001F056FA7B68052B22D1002201215E48F1
:1002DC0001F04EFA012202215B4801F049FA00229A
:1002EC000421594801F044FA00220821564801F033
:1002FC003FFA01221021544801F03AFA0022202141
:10030C00514801F035FA002240214F4801F030FAF3
:10031C007B68062B22D1002201214B4801F028FAE0
:10032C0001220221484801F023FA00220421464808
:10033C0001F01EFA00220821434801F019FA0022AC
:10034C001021414801F014FA002220213E4801F00E
:10035C000FFA002240213C4801F00AFA7B68072B77
:10036C0022D100220121384801F002FA0022022198
:10037C00354801F0FDF900220421334801F0F8F969
:10038C0001220821304801F0F3F9012210212E48F6
:10039C0001F0EEF9012220212B4801F0E9F90122AC
:1003AC004021294801F0E4F97B68082B22D1002276
:1003BC000121254801F0DCF900220221224801F03C
:1003CC00D7F900220421204801F0D2F9002208219B
:1003DC001D4801F0CDF9002210211B4801F0C8F98D
:1003EC0000222021184801F0C3F9002240211648B0
:1003FC0001F0BEF97B68092B22D1002201211248A1
:10040C0001F0B6F9002202210F4801F0B1F90022E7
:10041C0004210D4801F0ACF9002208210A4801F032
:10042C00A7F901221021084801F0A2F9002220218D
:10043C00054801F09DF900224021034801F098F98C
:10044C0000BF0837BD4680BD000C014080B400AF32
:10045C001A4B1B681A4A82FB03129210DB17D31A31
:10046C00184A1360154B1968154B83FB01239A101E
:10047C00CB17D21A13469B0013445B00CA1A114BBC
:10048C005A60114B1B680E4A82FB03129210DB1749
:10049C00D31A0C4A93600C4B1968094B83FB01234C
:1004AC009A10CB17D21A13469B0013445B00CA1A3E
:1004BC00044BDA6000BFBD4680BC704710000020C2
:1004CC0067666666000000201400002080B582B0CC
:1004DC0000AF78603B4A7B6852F823301846FFF730
:1004EC002FFE7B68032B67D801A252F823F000BFC4
:1004FC000D0500083B050008690500089705000874
:10050C0000224021304801F033F9012280212E488D
:10051C0001F02EF901224FF480712B4801F028F9DB
:10052C0001224FF40071284801F022F945E0012224
:10053C004021254801F01CF900228021224801F0BD
:10054C0017F901224FF480711F4801F011F90122B3
:10055C004FF400711C4801F00BF92EE001224021F0
:10056C00194801F005F901228021174801F000F922
:10057C0000224FF48071144801F0FAF801224FF474
:10058C000071114801F0F4F817E0012240210E48E7
:10059C0001F0EEF8012280210B4801F0E9F801226C
:1005AC004FF48071084801F0E3F800224FF4007119
:1005BC00054801F0DDF800E000BF00BF0837BD467C
:1005CC0080BD00BF000000200008014080B582B053
:1005DC0000AF78607B68072B00F2108301A252F801
:1005EC0023F000BF11060008CF0600088D07000895
:1005FC004B08000811090008CF0900088D0A0008F3
:10060C004B0B000800220421BC4801F0B1F8012278
:10061C000821BA4801F0ACF801224FF48061B748C8
:10062C0001F0A6F801224FF40061B44801F0A0F8E3
:10063C0001224FF48051B14801F09AF801224FF495
:10064C000051AE4801F094F801224FF48041AB48C0
:10065C0001F08EF801224FF40041A84801F088F80F
:10066C0001224FF48071A64801F082F801224FF468
:10067C000071A34801F07CF801224FF48061A0487E
:10068C0001F076F801224FF400619D4801F070F8FA
:10069C0001224FF480519A4801F06AF801224FF47C
:1006AC000051974801F064F801224FF480419448BE
:1006BC0001F05EF801224FF40041914801F058F826
:1006CC009DE2012204218D4801F052F800220821FC
:1006DC008A4801F04DF801224FF48061874801F0FF
:1006EC0047F801224FF40061844801F041F80122DF
:1006FC004FF48051814801F03BF801224FF4005136
:10070C007E4801F035F801224FF480417B4801F01E
:10071C002FF801224FF40041784801F029F801220A
:10072C004FF48071764801F023F800224FF40071E9
:10073C00734801F01DF800224FF48061704801F0FD
:10074C0017F800224FF400616D4801F011F80022F7
:10075C004FF480516A4801F00BF800224FF400511D
:10076C00674801F005F800224FF48041644800F01E
:10077C00FFFF00224FF40041614800F0F9FF3EE218
:10078C00012204215D4800F0F3FF012208215B489F
:10079C0000F0EEFF00224FF48061584800F0E8FFB3
:1007AC0001224FF40061554800F0E2FF01224FF4A2
:1007BC008051524800F0DCFF01224FF400514F48A9
:1007CC0000F0D6FF01224FF480414C4800F0D0FFDE
:1007DC0001224FF40041494800F0CAFF00224FF4B7
:1007EC008071474800F0C4FF01224FF40071444867
:1007FC0000F0BEFF01224FF48061414800F0B8FFC9
:10080C0001224FF400613E4800F0B2FF00224FF489
:10081C0080513B4800F0ACFF01224FF400513848A6
:10082C0000F0A6FF01224FF48041354800F0A0FFF4
:10083C0001224FF40041324800F09AFFDFE101221F
:10084C0004212E4800F094FF012208212B4800F0CF
:10085C008FFF01224FF48061284800F089FF0022AD
:10086C004FF40061254800F083FF01224FF48051C2
:10087C00224800F07DFF01224FF400511F4800F088
:10088C0077FF01224FF480411C4800F071FF0122D8
:10089C004FF40041194800F06BFF00224FF48071B7
:1008AC00174800F065FF01224FF40071144800F066
:1008BC005FFF01224FF48061114800F059FF0122C3
:1008CC004FF400610E4800F053FF00224FF48051AA
:1008DC000B4800F04DFF01224FF40051084800F086
:1008EC0047FF01224FF48041054800F041FF0122EF
:1008FC004FF40041024800F03BFF80E1000801404A
:10090C00000C014001220421BF4800F031FF0122FC
:10091C000821BD4800F02CFF01224FF48061BA4839
:10092C0000F026FF01224FF40061B74800F020FFD1
:10093C0000224FF48051B44800F01AFF01224FF40A
:10094C000051B14800F014FF01224FF48041AE4831
:10095C0000F00EFF01224FF40041AB4800F008FFFD
:10096C0000224FF48071A94800F002FF01224FF4DD
:10097C000071A64800F0FCFE01224FF48061A348F0
:10098C0000F0F6FE01224FF40061A04800F0F0FEEA
:10099C0000224FF480519D4800F0EAFE01224FF4F2
:1009AC0000519A4800F0E4FE01224FF48041974830
:1009BC0000F0DEFE01224FF40041944800F0D8FE16
:1009CC001DE101220421904800F0D2FE01220821F1
:1009DC008D4800F0CDFE01224FF480618A4800F072
:1009EC00C7FE01224FF40061874800F0C1FE0122CE
:1009FC004FF48051844800F0BBFE00224FF40051AC
:100A0C00814800F0B5FE01224FF480417E4800F091
:100A1C00AFFE01224FF400417B4800F0A9FE0022FA
:100A2C004FF48071794800F0A3FE01224FF400715D
:100A3C00764800F09DFE01224FF48061734800F06F
:100A4C0097FE01224FF40061704800F091FE0022E5
:100A5C004FF480516D4800F08BFE01224FF4005191
:100A6C006A4800F085FE01224FF48041674800F08F
:100A7C007FFE01224FF40041644800F079FEBEE095
:100A8C0001220421604800F073FE012208215E4817
:100A9C0000F06EFE01224FF480615B4800F068FEAE
:100AAC0001224FF40061584800F062FE01224FF41D
:100ABC008051554800F05CFE01224FF40051524821
:100ACC0000F056FE00224FF480414F4800F050FEDB
:100ADC0001224FF400414C4800F04AFE01224FF431
:100AEC0080714A4800F044FE00224FF400714748E0
:100AFC0000F03EFE00224FF48061444800F038FEC6
:100B0C0000224FF40061414800F032FE00224FF405
:100B1C0080513E4800F02CFE00224FF400513B481F
:100B2C0000F026FE00224FF48041384800F020FEF1
:100B3C0000224FF40041354800F01AFE5FE001221C
:100B4C000421314800F014FE012208212E4800F047
:100B5C000FFE01224FF480612B4800F009FE0122A8
:100B6C004FF40061284800F003FE01224FF480513D
:100B7C00254800F0FDFD01224FF40051224800F001
:100B8C00F7FD01224FF480411F4800F0F1FD0022D7
:100B9C004FF400411C4800F0EBFD01224FF4807132
:100BAC001A4800F0E5FD01224FF40071174800F0DF
:100BBC00DFFD01224FF48061144800F0D9FD0122C1
:100BCC004FF40061114800F0D3FD01224FF4805125
:100BDC000E4800F0CDFD01224FF400510B4800F0FF
:100BEC00C7FD01224FF48041084800F0C1FD0122ED
:100BFC004FF40041054800F0BBFD00E000BF00BF12
:100C0C000837BD4680BD00BF00080140000C014004
:100C1C0080B500AF00F0C2FA00F08EF800F014F9C5
:100C2C0000F0C6F83A4801F001FA4FF47A7000F07F
:100C3C0071F94FF4FA7000F087F90A2000F09EF970
:100C4C00FFF704FC334B1B68012B2DD14FF47A704A
:100C5C0000F060F9304B1B6801332F4A13602E4BA8
:100C6C001B683B2B07DD2C4B00221A602B4B1B689F
:100C7C0001332A4A1360294B1B683B2B07DD274B9A
:100C8C0000221A60264B1B680133254A1360244B43
:100C9C001B68172B02DD224B00221A60FFF7D6FBD4
:100CAC001021204800F07CFD1F4B1B68012B16D136
:100CBC004FF4FA7000F048F920211A4800F070FD4A
:100CCC001A4B1B68032B02DD184B00221A60174BC2
:100CDC001B685A1C15490A601846FFF7F7FB144BA2
:100CEC001B68012BAED10A2000F048F9114B1B6890
:100CFC001846FFF76BFC0F4B1B6801330D4A136052
:100D0C000C4B1B68072B9DDD0A4B00221A6099E7E0
:100D1C00680000205C000020180000201400002057
:100D2C001000002000080140600000204800002056
:100D3C00640000204C00002080B590B000AF07F19B
:100D4C00180328220021184601F02CFD3B1D00221F
:100D5C001A605A609A60DA601A610223BB6101233F
:100D6C00BB621023FB6200237B6307F11803184658
:100D7C0000F030FD0346002B01D000F0C5F80F2326
:100D8C007B600023BB600023FB6000233B610023DE
:100D9C007B613B1D0021184600F09CFF0346002B95
:100DAC0001D000F0B1F800BF4037BD4680BD000057
:100DBC0080B586B000AF07F1080300221A605A60B4
:100DCC009A60DA603B4600221A605A601D4B4FF065
:100DDC0080421A601B4B41F63F725A60194B00223D
:100DEC009A60184B0922DA60164B00221A61154BD7
:100DFC0000229A61134801F0C9F80346002B01D078
:100E0C0000F082F84FF48053BB6007F108031946D9
:100E1C000C4801F05FFA0346002B01D000F074F887
:100E2C0000233B6000237B603B461946054801F0DC
:100E3C002BFC0346002B01D000F066F800BF1837DE
:100E4C00BD4680BD6800002080B586B000AF07F1BC
:100E5C00080300221A605A609A60DA60224B9B6980
:100E6C00214A43F0040393611F4B9B6903F0040375
:100E7C007B607B681C4B9B691B4A43F008039361A6
:100E8C00194B9B6903F008033B603B6800224FF64B
:100E9C00FC71164800F06CFC00224FF67F71144870
:100EAC0000F066FC4FF6FC73BB600123FB60002373
:100EBC003B6102237B6107F1080319460B4800F0E4
:100ECC00DDFA4FF67F73BB600123FB6000233B61AF
:100EDC0002237B6107F108031946054800F0CEFA9E
:100EEC0000BF1837BD4680BD00100240000801400D
:100EFC00000C014080B582B000AF786000F058F86B
:100F0C0000BF0837BD4680BD80B400AF72B600BFCD
:100F1C00FEE7000080B483B000AF7860074B1B681D
:100F2C007A6892FBF3F3064A1360064B00221A60B0
:100F3C0000BF0C37BD4680BC704700BF1C000020B2
:100F4C00500000205C00002080B483B000AF7860BB
:100F5C00074B1B687A6892FBF3F3064A1360064B47
:100F6C0000221A6000BF0C37BD4680BC704700BF22
:100F7C001C000020540000206000002080B483B0CE
:100F8C0000AF7860074B1B687A6892FBF3F3064A54
:100F9C001360064B00221A6000BF0C37BD4680BCA4
:100FAC00704700BF1C000020580000206400002087
:100FBC0080B400AF194B1B68002B0BDD174B1B6863
:100FCC00013B164A1360154B1B68002B02D1144BC6
:100FDC0001221A60134B1B68002B0BDD114B1B6895
:100FEC00013B104A13600F4B1B68002B02D10E4BB8
:100FFC0001221A600D4B1B68002B0BDD0B4B1B6881
:10100C00013B0A4A1360094B1B68002B02D1084BA9
:10101C0001221A6000BFBD4680BC70475000002002
:10102C005C000020540000206000002058000020CC
:10103C006400002080B485B000AF154B9B69144A46
:10104C0043F001039361124B9B6903F00103BB60F6
:10105C00BB680F4BDB690E4A43F08053D3610C4BDA
:10106C00DB6903F080537B607B680A4B5B68FB6039
:10107C00FB6823F0E063FB60FB6843F08063FB607C
:10108C00044AFB68536000BF1437BD4680BC7047F0
:10109C00001002400000014080B584B000AF7860C1
:1010AC007B681B68B3F1804F13D10C4BDB690B4A87
:1010BC0043F00103D361094BDB6903F00103FB60CF
:1010CC00FB68002200211C2000F0A1F91C2000F07C
:1010DC00BAF900BF1037BD4680BD00BF00100240FA
:1010EC0080B400AFFEE780B400AFFEE780B400AF81
:1010FC00FEE780B400AFFEE780B400AFFEE780B43B
:10110C0000AF00BFBD4680BC704780B400AF00BFCD
:10111C00BD4680BC704780B400AF00BFBD4680BCEC
:10112C00704780B500AF00F07FF800BF80BD0000B5
:10113C0080B500AF024800F0C5FF00BF80BD00BF06
:10114C006800002080B400AF00BFBD4680BC704773
:10115C00FFF7F8FF0B480C490C4A002302E0D45867
:10116C00C4500433C4188C42F9D3094A094C0023E7
:10117C0001E013600432A242FBD301F0EFFAFFF757
:10118C0047FD7047000000202C00002004280008B8
:10119C002C000020B4000020FEE7000080B500AF5A
:1011AC00084B1B68074A43F010031360032000F040
:1011BC0023F90F2000F008F8FFF73CFF0023184636
:1011CC0080BD00BF0020024080B582B000AF7860C7
:1011DC00124B1A68124B1B7819464FF47A73B3FBF7
:1011EC00F1F3B2FBF3F3184600F03BF90346002B86
:1011FC0001D001230EE07B680F2B0AD800227968FE
:10120C004FF0FF3000F003F9064A7B6813600023AF
:10121C0000E0012318460837BD4680BD20000020A1
:10122C00280000202400002080B400AF054B1B7860
:10123C001A46054B1B681344034A136000BFBD4696
:10124C0080BC704728000020B000002080B400AFA4
:10125C00024B1B681846BD4680BC7047B00000208E
:10126C0080B485B000AF78607B6803F00703FB6047
:10127C000C4BDB68BB60BA684FF6FF031340BB60D6
:10128C00FB681A02BB68134343F0BF6343F400339B
:10129C00BB60044ABB68D36000BF1437BD4680BC3A
:1012AC00704700BF00ED00E080B400AF044BDB687A
:1012BC001B0A03F007031846BD4680BC704700BFED
:1012CC0000ED00E080B483B000AF0346FB7197F9EA
:1012DC000730002B0BDBFB7903F01F02064997F953
:1012EC0007305B09012000FA02F241F8232000BF0D
:1012FC000C37BD4680BC704700E100E080B483B081
:10130C0000AF03463960FB7197F90730002B0ADBFD
:10131C003B68DAB20C4997F907301201D2B20B4490
:10132C0083F800230AE03B68DAB20849FB7903F042
:10133C000F03043B1201D2B20B441A7600BF0C37D8
:10134C00BD4680BC704700BF00E100E000ED00E04E
:10135C0080B489B000AFF860B9607A60FB6803F0C4
:10136C000703FB61FB69C3F10703042B28BF0423AC
:10137C00BB61FB690433062B02D9FB69033B00E01C
:10138C0000237B614FF0FF32BB6902FA03F3DA43AF
:10139C00BB681A407B699A404FF0FF317B6901FAB8
:1013AC0003F3D9437B680B40134318462437BD46DF
:1013BC0080BC704780B582B000AF78607B68013B21
:1013CC00B3F1807F01D301230FE00A4A7B68013B14
:1013DC0053600F214FF0FF30FFF790FF054B0022B9
:1013EC009A60044B07221A60002318460837BD4642
:1013FC0080BD00BF10E000E080B582B000AF786027
:10140C007868FFF72DFF00BF0837BD4680BD80B55B
:10141C0086B000AF0346B9607A60FB7300237B6132
:10142C00FFF742FF78617A68B9687869FFF790FF37
:10143C00024697F90F3011461846FFF75FFF00BFC1
:10144C001837BD4680BD80B582B000AF0346FB7136
:10145C0097F907301846FFF735FF00BF0837BD4630
:10146C0080BD80B582B000AF78607868FFF7A2FFCE
:10147C00034618460837BD4680BD000080B48BB0CB
:10148C0000AF7860396000237B6200233B6248E147
:10149C0001227B6A02FA03F3FB613B681B68FA6961
:1014AC001340BB61BA69FB699A4240F037813B68D3
:1014BC005B68A34A93425ED0A14A934275D8A14A75
:1014CC00934258D09F4A93426FD89F4A934252D02E
:1014DC009D4A934269D89D4A93424CD09B4A934271
:1014EC0063D89B4A934246D0994A93425DD8122BBB
:1014FC002AD8122B59D801A252F823F083150008D0
:10150C005D1500086F150008B1150008B715000827
:10151C00B7150008B7150008B7150008B71500086F
:10152C00B7150008B7150008B7150008B71500085F
:10153C00B7150008B7150008B7150008B71500084F
:10154C006515000879150008824A934213D02CE0E7
:10155C003B68DB683B6229E03B68DB6804333B6239
:10156C0024E03B68DB6808333B621FE03B68DB68C8
:10157C000C333B621AE03B689B68002B02D10423BE
:10158C003B6213E03B689B68012B05D108233B624F
:10159C007B68FA691A6109E008233B627B68FA6987
:1015AC005A6103E000233B6200E000BFBB69FF2BE4
:1015BC0001D87B6801E07B6804337B61BB69FF2B3E
:1015CC0002D87B6A9B0002E07B6A083B9B003B6174
:1015DC007B691A680F213B6901FA03F3DB431A405C
:1015EC00396A3B6901FA03F31A437B691A603B6859
:1015FC005B6803F08053002B00F09080564B9B6986
:10160C00554A43F001039361534B9B6903F001036B
:10161C00BB60BB68514A7B6A9B08023352F823308B
:10162C00FB607B6A03F003039B000F2202FA03F3B7
:10163C00DB43FA681340FB607B68494A93420DD048
:10164C007B68484A934207D07B68474A934201D152
:10165C00022304E0032302E0012300E000237A6A62
:10166C0002F0030292009340FA681343FB603B497B
:10167C007B6A9B080233FA6841F823203B685B685D
:10168C0003F48013002B06D0384B9A683749BB699A
:10169C0013438B6006E0354B9A68BB69DB433349D7
:1016AC0013408B603B685B6803F40013002B06D07F
:1016BC002E4BDA682D49BB691343CB6006E02B4BEC
:1016CC00DA68BB69DB4329491340CB603B685B6834
:1016DC0003F40033002B06D0244B5A682349BB6912
:1016EC0013434B6006E0214B5A68BB69DB431F492F
:1016FC0013404B603B685B6803F48033002B06D0CF
:10170C001A4B1A681949BB6913430B6006E0174B57
:10171C001A68BB69DB43154913400B607B6A0133C4
:10172C007B623B681A687B6A22FA03F3002B7FF416
:10173C00AFAE00BF00BF2C37BD4680BC704700BFAA
:10174C0000003210000031100000221000002110A7
:10175C0000001210000011100010024000000140A7
:10176C0000080140000C0140001001400004014041
:10177C0080B483B000AF78600B467B8013467B70DF
:10178C007B78002B03D07A887B681A6103E07B8816
:10179C001A047B681A6100BF0C37BD4680BC7047C9
:1017AC0080B485B000AF78600B467B807B68DB68CB
:1017BC00FB607A88FB6813401A04FB68D9437B886A
:1017CC000B401A437B681A6100BF1437BD4680BCBE
:1017DC007047000080B586B000AF78607B68002B46
:1017EC0001D101236CE27B681B6803F00103002B21
:1017FC0000F08780924B5B6803F00C03042B0CD039
:10180C008F4B5B6803F00C03082B12D18C4B5B687D
:10181C0003F48033B3F5803F0BD1894B1B6803F481
:10182C000033002B6CD07B685B68002B68D10123E4
:10183C0046E27B685B68B3F5803F06D1804B1B6842
:10184C007F4A43F4803313602EE07B685B68002B87
:10185C000CD17B4B1B687A4A23F480331360784B92
:10186C001B68774A23F4802313601DE07B685B6858
:10187C00B3F5A02F0CD1724B1B68714A43F4802333
:10188C0013606F4B1B686E4A43F4803313600BE09C
:10189C006B4B1B686A4A23F480331360684B1B68DC
:1018AC00674A23F4802313607B685B68002B13D09A
:1018BC00FFF7CCFC386108E0FFF7C8FC02463B6937
:1018CC00D31A642B01D90323FAE15D4B1B6803F493
:1018DC000033002BF0D014E0FFF7B8FC386108E0BF
:1018EC00FFF7B4FC02463B69D31A642B01D90323DE
:1018FC00E6E1534B1B6803F40033002BF0D100E0FE
:10190C0000BF7B681B6803F00203002B63D04C4BB9
:10191C005B6803F00C03002B0BD0494B5B6803F0A6
:10192C000C03082B1CD1464B5B6803F48033002B53
:10193C0016D1434B1B6803F00203002B05D07B68C8
:10194C001B69012B01D00123BAE13D4B1B6823F02D
:10195C00F8027B685B69DB00394913430B603AE0A2
:10196C007B681B69002B20D0364B01221A60FFF7D5
:10197C006DFC386108E0FFF769FC02463B69D31A3D
:10198C00022B01D903239BE12D4B1B6803F00203AF
:10199C00002BF0D02A4B1B6823F0F8027B685B69A4
:1019AC00DB00274913430B6015E0264B00221A601D
:1019BC00FFF74CFC386108E0FFF748FC02463B6936
:1019CC00D31A022B01D903237AE11D4B1B6803F0B8
:1019DC000203002BF0D17B681B6803F00803002B7B
:1019EC003AD07B689B69002B19D0174B01221A60E7
:1019FC00FFF72CFC386108E0FFF728FC02463B6936
:101A0C00D31A022B01D903235AE10D4B5B6A03F065
:101A1C000203002BF0D0012000F09AFA1CE00A4BD4
:101A2C0000221A60FFF712FC38610FE0FFF70EFC82
:101A3C0002463B69D31A022B08D9032340E100BFAD
:101A4C000010024000004242800442429E4B5B6AFE
:101A5C0003F00203002BE9D17B681B6803F004033D
:101A6C00002B00F0A6800023FB75974BDB6903F07D
:101A7C008053002B0DD1944BDB69934A43F0805378
:101A8C00D361914BDB6903F08053BB60BB680123CE
:101A9C00FB758E4B1B6803F48073002B18D18B4B9A
:101AAC001B688A4A43F480731360FFF7CFFB3861DD
:101ABC0008E0FFF7CBFB02463B69D31A642B01D934
:101ACC000323FDE0814B1B6803F48073002BF0D0E3
:101ADC007B68DB68012B06D17B4B1B6A7A4A43F08F
:101AEC00010313622DE07B68DB68002B0CD1764B75
:101AFC001B6A754A23F001031362734B1B6A724A0B
:101B0C0023F0040313621CE07B68DB68052B0CD10B
:101B1C006D4B1B6A6C4A43F0040313626A4B1B6ADD
:101B2C00694A43F0010313620BE0674B1B6A664A78
:101B3C0023F001031362644B1B6A634A23F0040312
:101B4C0013627B68DB68002B15D0FFF77FFB3861D5
:101B5C000AE0FFF77BFB02463B69D31A41F288325D
:101B6C00934201D90323ABE0574B1B6A03F00203EA
:101B7C00002BEED014E0FFF769FB38610AE0FFF7A9
:101B8C0065FB02463B69D31A41F28832934201D974
:101B9C00032395E04C4B1B6A03F00203002BEED1A0
:101BAC00FB7D012B05D1484BDB69474A23F0805361
:101BBC00D3617B68DB69002B00F08180424B5B6852
:101BCC0003F00C03082B61D07B68DB69022B46D138
:101BDC003F4B00221A60FFF739FB386108E0FFF732
:101BEC0035FB02463B69D31A022B01D9032367E06C
:101BFC00354B1B6803F00073002BF0D17B681B6A1C
:101C0C00B3F5803F08D1304B5B6823F400327B681E
:101C1C009B682D4913434B602B4B5B6823F4741268
:101C2C007B68196A7B685B6A0B43274913434B60DB
:101C3C00274B01221A60FFF709FB386108E0FFF718
:101C4C0005FB02463B69D31A022B01D9032337E06B
:101C5C001D4B1B6803F00073002BF0D02FE01C4BC6
:101C6C0000221A60FFF7F2FA386108E0FFF7EEFA8B
:101C7C0002463B69D31A022B01D9032320E0124BF5
:101C8C001B6803F00073002BF0D118E07B68DB6954
:101C9C00012B01D1012313E00B4B5B68FB60FB684C
:101CAC0003F480327B681B6A9A4206D1FB6803F40A
:101CBC0070127B685B6A9A4201D0012300E000231A
:101CCC0018461837BD4680BD001002400070004019
:101CDC006000424280B584B000AF786039607B68A8
:101CEC00002B01D10123D0E06A4B1B6803F00703E2
:101CFC003A689A4210D9674B1B6823F00702654972
:101D0C003B6813430B60634B1B6803F007033A6893
:101D1C009A4201D00123B8E07B681B6803F00203F0
:101D2C00002B20D07B681B6803F00403002B05D02C
:101D3C00594B5B68584A43F4E06353607B681B68FB
:101D4C0003F00803002B05D0534B5B68524A43F455
:101D5C0060535360504B5B6823F0F0027B689B68C8
:101D6C004D4913434B607B681B6803F00103002B48
:101D7C0040D07B685B68012B07D1474B1B6803F491
:101D8C000033002B15D101237FE07B685B68022BAD
:101D9C0007D1414B1B6803F00073002B09D10123C1
:101DAC0073E03D4B1B6803F00203002B01D10123B0
:101DBC006BE0394B5B6823F003027B685B68364948
:101DCC0013434B60FFF742FAF8600AE0FFF73EFA64
:101DDC000246FB68D31A41F28832934201D903239D
:101DEC0053E02D4B5B6803F00C027B685B689B0037
:101DFC009A42EBD1274B1B6803F007033A689A42CF
:101E0C0010D2244B1B6823F0070222493B68134372
:101E1C000B60204B1B6803F007033A689A4201D011
:101E2C00012332E07B681B6803F00403002B08D00D
:101E3C00194B5B6823F4E0627B68DB68164913433B
:101E4C004B607B681B6803F00803002B09D0124B16
:101E5C005B6823F460527B681B69DB000E491343FB
:101E6C004B6000F021F802460B4B5B681B0903F03A
:101E7C000F030A49CB5C22FA03F3094A1360094B9E
:101E8C001B681846FFF7A0F9002318461037BD460B
:101E9C0080BD00BF0020024000100240D82700087F
:101EAC00200000202400002080B487B000AF002365
:101EBC00FB600023BB6000237B6100237B6000235D
:101ECC003B611E4B5B68FB60FB6803F00C03042B4F
:101EDC0002D0082B03D027E0194B3B6127E0FB68AD
:101EEC009B0C03F00F03174AD35C7B60FB6803F475
:101EFC008033002B10D0114B5B685B0C03F001039B
:101F0C00114AD35CBB607B680D4A02FB03F2BB68D1
:101F1C00B2FBF3F37B6104E07B680C4A02FB03F336
:101F2C007B617B693B6102E0054B3B6100BF3B6918
:101F3C0018461C37BD4680BC704700BF00100240DD
:101F4C0000127A00E8270008F827000800093D0075
:101F5C0080B485B000AF78600A4B1B680A4AA2FBBC
:101F6C0003235B0A7A6802FB03F3FB6000BFFB6888
:101F7C005A1EFA60002BF9D100BF00BF1437BD46C2
:101F8C0080BC704720000020D34D621080B582B019
:101F9C0000AF78607B68002B01D1012341E07B68A6
:101FAC0093F83D30DBB2002B06D17B68002283F81E
:101FBC003C207868FFF770F87B68022283F83D209C
:101FCC007B681A687B6804331946104600F06EFA79
:101FDC007B68012283F846207B68012283F83E202F
:101FEC007B68012283F83F207B68012283F8402024
:101FFC007B68012283F841207B68012283F8422010
:10200C007B68012283F843207B68012283F84420FB
:10201C007B68012283F845207B68012283F83D20F0
:10202C00002318460837BD4680BD000080B485B03B
:10203C0000AF78607B6893F83D30DBB2012B01D0A8
:10204C00012335E07B68022283F83D207B681B6806
:10205C00DA687B681B6842F00102DA607B681B68F7
:10206C00164A934209D07B681B68B3F1804F04D0A9
:10207C007B681B68124A934211D17B681B689B6872
:10208C0003F00703FB60FB68062B10D07B681B6812
:10209C001A687B681B6842F001021A6007E07B68D3
:1020AC001B681A687B681B6842F001021A600023E7
:1020BC0018461437BD4680BC704700BF002C014049
:1020CC000004004080B582B000AF78607B681B686C
:1020DC001B6903F00203022B22D17B681B68DB68AF
:1020EC0003F00203022B1BD17B681B686FF002020A
:1020FC001A617B6801221A777B681B689B6903F065
:10210C000303002B03D0786800F0B4F905E078687D
:10211C0000F0A7F9786800F0B6F97B6800221A770E
:10212C007B681B681B6903F00403042B22D17B68BA
:10213C001B68DB6803F00403042B1BD17B681B6852
:10214C006FF004021A617B6802221A777B681B68A5
:10215C009B6903F44073002B03D0786800F08AF974
:10216C0005E0786800F07DF9786800F08CF97B6800
:10217C0000221A777B681B681B6903F00803082B85
:10218C0022D17B681B68DB6803F00803082B1BD18A
:10219C007B681B686FF008021A617B6804221A774F
:1021AC007B681B68DB6903F00303002B03D07868A2
:1021BC0000F060F905E0786800F053F9786800F0F9
:1021CC0062F97B6800221A777B681B681B6903F035
:1021DC001003102B22D17B681B68DB6803F0100303
:1021EC00102B1BD17B681B686FF010021A617B6887
:1021FC0008221A777B681B68DB6903F44073002B99
:10220C0003D0786800F036F905E0786800F029F919
:10221C00786800F038F97B6800221A777B681B68B5
:10222C001B6903F00103012B0ED17B681B68DB6873
:10223C0003F00103012B07D17B681B686FF00102CF
:10224C001A617868FEF756FE7B681B681B6903F001
:10225C008003802B0ED17B681B68DB6803F0800346
:10226C00802B07D17B681B686FF080021A6178683D
:10227C0000F06BFA7B681B681B6903F04003402B72
:10228C000ED17B681B68DB6803F04003402B07D141
:10229C007B681B686FF040021A61786800F0FCF8EC
:1022AC007B681B681B6903F02003202B0ED17B6815
:1022BC001B68DB6803F02003202B07D17B681B68AD
:1022CC006FF020021A61786800F036FA00BF083708
:1022DC00BD4680BD80B584B000AF78603960002306
:1022EC00FB737B6893F83C30012B01D10223B4E0E3
:1022FC007B68012283F83C207B68022283F83D2016
:10230C007B681B689B68BB60BB6823F07703BB6072
:10231C00BB6823F47F43BB607B681B68BA689A6018
:10232C003B681B68B3F5005F3ED0B3F5005F00F26D
:10233C008780B3F5805F00F08680B3F5805F7FD82F
:10234C00702B1AD0702B7BD8602B50D0602B77D889
:10235C00502B3CD0502B73D8402B58D0402B6FD8DF
:10236C00302B64D0302B6BD8202B60D0202B67D82F
:10237C00002B5CD0102B5AD062E07B6818683B684D
:10238C0099683B685A683B68DB6800F05EF97B68CB
:10239C001B689B68BB60BB6843F07703BB607B68C2
:1023AC001B68BA689A604FE07B6818683B6899684C
:1023BC003B685A683B68DB6800F047F97B681B6830
:1023CC009A687B681B6842F480429A603CE07B68A8
:1023DC0018683B6859683B68DB681A4600F0BEF821
:1023EC007B681B685021184600F015F92CE07B68BF
:1023FC0018683B6859683B68DB681A4600F0DCF8E3
:10240C007B681B686021184600F005F91CE07B68AE
:10241C0018683B6859683B68DB681A4600F09EF800
:10242C007B681B684021184600F0F5F80CE07B68CF
:10243C001A683B681B681946104600F0ECF803E07C
:10244C000123FB7300E000BF7B68012283F83D2071
:10245C007B68002283F83C20FB7B18461037BD4676
:10246C0080BD80B483B000AF786000BF0C37BD4630
:10247C0080BC704780B483B000AF786000BF0C376D
:10248C00BD4680BC704780B483B000AF786000BF9D
:10249C000C37BD4680BC704780B483B000AF786009
:1024AC0000BF0C37BD4680BC7047000080B485B0BF
:1024BC0000AF786039607B681B68FB607B68254ADD
:1024CC00934207D07B68B3F1804F03D07B68224ADC
:1024DC00934208D1FB6823F07003FB603B685B6898
:1024EC00FA681343FB607B681A4A934207D07B68F7
:1024FC00B3F1804F03D07B68174A934208D1FB6835
:10250C0023F44073FB603B68DB68FA681343FB60A1
:10251C00FB6823F080023B685B691343FB607B68BC
:10252C00FA681A603B689A687B68DA623B681A68DA
:10253C007B689A627B68074A934203D13B681A69AD
:10254C007B681A637B6801225A6100BF1437BD4651
:10255C0080BC7047002C01400004004080B487B060
:10256C0000AFF860B9607A60FB681B6A7B61FB683E
:10257C001B6A23F00102FB681A62FB689B693B61D2
:10258C003B6923F0F0033B617B681B013A69134301
:10259C003B617B6923F00A037B617A69BB68134357
:1025AC007B61FB683A699A61FB687A691A6200BFC1
:1025BC001C37BD4680BC704780B487B000AFF86054
:1025CC00B9607A60FB681B6A7B61FB681B6A23F04D
:1025DC001002FB681A62FB689B693B613B6923F440
:1025EC0070433B617B681B033A6913433B617B6916
:1025FC0023F0A0037B61BB681B017A6913437B61E9
:10260C00FB683A699A61FB687A691A6200BF1C37E9
:10261C00BD4680BC704780B485B000AF786039602F
:10262C007B689B68FB60FB6823F07003FB603A6877
:10263C00FB68134343F00703FB607B68FA689A60FE
:10264C0000BF1437BD4680BC704780B487B000AF64
:10265C00F860B9607A603B60FB689B687B617B6962
:10266C0023F47F437B613B681A027B681A43BB6887
:10267C0013437A6913437B61FB687A699A6000BFE4
:10268C001C37BD4680BC704780B485B000AF786005
:10269C0039607B6893F83C30012B01D1022341E077
:1026AC007B68012283F83C207B68022283F83D2062
:1026BC007B681B685B68FB607B681B689B68BB6006
:1026CC00FB6823F07003FB603B681B68FA681343DC
:1026DC00FB607B681B68FA685A607B681B68144A4D
:1026EC00934209D07B681B68B3F1804F04D07B68A0
:1026FC001B68104A93420CD1BB6823F08003BB606B
:10270C003B685B68BA681343BB607B681B68BA683C
:10271C009A607B68012283F83D207B68002283F855
:10272C003C20002318461437BD4680BC704700BFC0
:10273C00002C01400004004080B483B000AF7860EE
:10274C0000BF0C37BD4680BC704780B483B000AF6F
:10275C00786000BF0C37BD4680BC704770B5002652
:10276C000C4D0D4C641BA410A64209D100F022F8AC
:10277C0000260A4D0A4C641BA410A64205D170BD5C
:10278C0055F8043B98470136EEE755F8043B98475B
:10279C000136F2E7FC270008FC270008FC2700089C
:1027AC000028000803460244934200D1704703F806
:1027BC00011BF9E7F8B500BFF8BC08BC9E46704792
:0C27CC00F8B500BFF8BC08BC9E46704782
:1027D80000000000000000000102030406070809C9
:1027E80002030405060708090A0B0C0D0E0F10104A
:0427F80001020000DA
:0427FC00310100089F
:042800000D010008BE
:1028040001000000030000000000000004000000BC
:10281400170000003B000000370000000A00000021
:0C2824000024F40010000000010000007F
:040000050800115D81
:00000001FF
